:020000040800F2
:10000000C00C002045010008B11A00088713000841
:10001000AD1A000855100008E73A0008000000007B
:10002000000000000000000000000000E5240008BF
:10003000C9100008000000002B1F0008F12C000868
:100040005F0100085F0100085F0100085F01000810
:100050005F0100085F0100085F0100085F01000800
:100060005F0100085F0100085F0100085F010008F0
:100070005F0100085F0100085F0100085F010008E0
:100080005F0100085F010008A10B00085F01000884
:100090005F0100085F0100085F0100085F010008C0
:1000A0005F0100085F0100085F0100085F010008B0
:1000B0005F0100085F0100085F0100085F010008A0
:1000C0005F0100085F0100085F0100085F01000890
:1000D0005F010008B934000855350008B53600083E
:1000E0005F0100085F0100085F0100085F01000870
:1000F0005F0100085F0100085F0100085F01000860
:100100005F0100085F0100085F0100085F0100084F
:10011000993100089D3200085F0100085F01000866
:100120005F0100085F0100085F0100085F0100082F
:10013000DFF80CD000F0D0FC00480047D35F000887
:10014000C00C00200648804706480047FEE7FEE74F
:10015000FEE7FEE7FEE7FEE7FEE7FEE7FEE7FEE777
:10016000F52C0008310100082DE9F0410024061BA0
:10017000254671F1000605DA01240027D0EB0700BF
:1001800067EB0101161E73F1000605DA0027D2EBBA
:100190000702012567EB030300F060FB86460E466D
:1001A00017469C46AC4204D00025D0EB050E65EB0B
:1001B000010624B10020D2EB000760EB030C70466F
:1001C00031463A466346BDE8F081D2B201E000F81C
:1001D000012B491EFBD270470022F6E710B51346EB
:1001E0000A4604461946FFF7F0FF204610BD30B519
:1001F00004460020034600E05B1C934203D2E05C0F
:10020000CD5C401BF8D030BDF0B480EA0102D40FC1
:100210004200B2EB410F02D20246084611464A00A4
:1002200042D0C30DDDB2C1F3C752AD1A202D35DA6D
:10023000C1F3160141F4000204B15242C5F1200697
:1002400002FA06F12A411044B3EBD05F23D0C4B1C7
:10025000012DA0EBC35009DCF0BC4FF0004202EAD4
:10026000C352DBB200F5000000F063BB400000F1B8
:10027000807000EBC350A0F1807040EAD17049005B
:1002800009E0490841EAC071A0EBC35000F5000045
:10029000400800EBC350F0BC00F042BB61420122B9
:1002A00002EB4101001BF6E7F0BC704781F0004112
:1002B000AAE780F00040A7E780EA010210B502F04B
:1002C0000043400022D04A001FD0010E01EB126112
:1002D000C0F35600C2F3560240F4000042F400029C
:1002E000A0FB022000047F39140400D0401C50EA17
:1002F000124001D44000491EC2B20C0604EBD010DB
:10030000401C4008802A02D003E0002010BD20F0ED
:100310000100002900DA0020184310BD30B480EA43
:10032000010202F0004530F0004221F0004013D0FD
:1003300090B1C30DD40DC2F31601C0F31600E41A38
:1003400041F4000140F400027D34914201D3641C69
:1003500000E04900002C02DA30BC002070474FF466
:1003600000000023914201D3891A034340084FEA59
:100370004101F7D151B1914202D14FF0004105E066
:1003800002D24FF0010101E06FF0010103EBC45014
:10039000284430BC00F0C4BA2DE9FE4F804681EA03
:1003A0000300C00F0C46009021F0004123F00045EF
:1003B000B8EB0200A94105D24046214690461C46B2
:1003C0000B46024623F00040104347D0270DC7F3E9
:1003D0000A00C3F30A510290401A019040286BDAD8
:1003E000C3F3130040F4801B0098924620B1002311
:1003F000D2EB030A63EB0B0B01985946C0F14002A4
:10040000504600F05CFA06460D4650465946019AA1
:1004100000F074FA10EB08006141002487EA1152E1
:1004200084EAE7731A4340D0009A62B3019A012A22
:100430004FEA075215DC001B61EB02014FF000424E
:1004400002EA0752CDE90042001C41F58011324614
:100450002B4600F0ABFA03B0BDE8F08F40462146D2
:10046000F9E7001B61EB0201001C41F58013001845
:100470005B412018A2F5001747EB030140EAD57055
:10048000B6196D4111E06D084FEA360645EAC075B0
:100490004FEA0752001B61EB0201001C41F580117D
:1004A00049084FEA30000019514132462B4603B04B
:1004B000BDE8F04F00F06BBA009801224000002325
:1004C000D0EB020263EBE073009821464FEAE07440
:1004D000B8EB000061EB0401E9E783F000435BE760
:1004E00081F0004158E72DE9FE4F81EA030404F052
:1004F000004421F0004100944FF0000B23F0004332
:1005000050EA01045ED052EA03045BD0C3F30A54FC
:10051000C1F30A552C44A4F2F3340194A0FB025415
:10052000C1F3130141F48011C3F3130343F48013A7
:1005300001FB024400FB034E840A970A44EA8154FB
:1005400047EA8357A4FB076802958D0A05FB0785D8
:100550004FEA932C04FB0C542705029D4FEA0658E2
:1005600047EA1637B5EB08056EEB070C870E920EBF
:1005700047EA811742EA8312A7FB0201B6EB0B019F
:1005800064EB00042B0D43EA0C335E1844EB1C5063
:10059000DA465146E7FB0201C5F313044FEA0B3379
:1005A00043EA14534FEA0432019C43EA0603A4F1E0
:1005B0000C040294009CCDE900B400F0F7F903B0FC
:1005C000BDE8F08F00200146F9E72DE9F04D81EA02
:1005D000030404F0004B21F0004514464FF0000ADC
:1005E00023F0004150EA050220D054EA01021DD058
:1005F000C5F30A570246C5F31303C1F31300C1F351
:100600000A5640F4801543F48013A7EB0608101B2C
:10061000D64608F2FD3873EB050002D308F1010855
:1006200001E092185B41B8F1000F03DA00200146A7
:10063000BDE8F08D00204FF48011064684460EE0A0
:10064000171B73EB050705D3121B63EB050306436A
:100650004CEA010C49084FEA300092185B4150EA1D
:100660000107EDD152EA030012D082EA040083EAC6
:100670000501084305D0101BAB4106D2012200231F
:1006800006E000224FF0004302E06FF00102531039
:100690001AEB06004CEB085110EB0A0041EB0B0182
:1006A000BDE8F04D00F073B9C10F80EAE070084476
:1006B000CA079623002100F03CB996230022114678
:1006C00000F037B90EB540F2334102910021CDE977
:1006D00000110A460B4600F069F903B000BD00F0B6
:1006E000004220F00040C10DC0F3160040F40000AD
:1006F0007F2901DA00207047962903DCC1F19601B9
:10070000C84001E096398840002AF4D04042704742
:1007100020F00040C10DC0F3160040F400007F2916
:1007200001DA00207047962903DCC1F19601C84028
:10073000704796398840704770B5C1F30A5201F08E
:1007400000450024C1F3130140F2FF3341F480114E
:100750009A4201DA002070BD40F233439A42A2F27D
:10076000334203DC524200F0B9F800E090402C43E1
:10077000F1D0404270BDC1F30A5210B5C1F313016C
:1007800040F2FF3341F480119A4201DA002010BD9B
:1007900040F233439A42A2F2334203DC524200F069
:1007A0009DF810BD904010BD00F0004230F00040B8
:1007B0000AD0C10D01F56071C0F3160042EA015183
:1007C000C20840071143704700200146704701F0FE
:1007D000004330B421F0004150EA010206D00A0D76
:1007E000A2F56072C1F31301002A02DC30BC0020C4
:1007F0007047440F44EAC104C100E01830BC00EB6C
:10080000C25000F08DB80000002801DBC0F10040AC
:10081000002901DBC1F1004181427047002801DB62
:10082000C0F10040002901DBC1F10041884270475E
:1008300030B50B46014600202022012409E021FAB0
:1008400002F59D4205D303FA02F5491B04FA02F5AD
:100850002844151EA2F10102F1DC30BD2DE9F05F44
:100860000546002092469B4688460646814640241F
:100870001BE0284641464746224600F02FF85346E3
:100880005A46C01A914110D311461846224600F02C
:1008900016F82D1A67EB01084F4622460120002169
:1008A00000F00DF817EB00094E41201EA4F10104E1
:1008B000DFDC484631462A464346BDE8F09F202A01
:1008C00004DB203A00FA02F1002070479140C2F1A7
:1008D000200320FA03F3194390407047202A04DBD9
:1008E000203A21FA02F00021704721FA02F3D040A9
:1008F000C2F120029140084319467047202A06DBC6
:10090000CB17203A41FA02F043EAE07306E041FADD
:1009100002F3D040C2F120029140084319467047CB
:100920000029A8BF7047401C490008BF20F0010003
:10093000704710B4B0FA80FC00FA0CF050EA0104E1
:1009400004BF10BC704749B1CCF1200421FA04F473
:1009500011FA0CF118BF012121430843A3EB0C014C
:10096000CB1D4FEA00614FEA102042BF002010BCAF
:10097000704700EBC35010440029A4BF10BC70475F
:10098000401C490008BF20F0010010BC704710B5A2
:10099000141E73F1000408DA401C41F100019218A2
:1009A0005B411A4301D120F0010010BD2DE9F04D4B
:1009B00092469B4611B1B1FA81F202E0B0FA80F2A0
:1009C00020329046FFF77BFF04460F4640EA0A00BC
:1009D00041EA0B0153465A46084313D0114653EAE5
:1009E000010019D0C8F140025046FFF777FF0546D5
:1009F0000E46504659464246FFF761FF084305D070
:100A0000012004E020463946BDE8F08D0020054372
:100A100046EAE0762C4337430A986305E40AA0EBE4
:100A200008000022FD0A44EA47540A3002D500209B
:100A30000146E9E7010510196941DDE9084500199A
:100A40006941BDE8F04DA2E770B521F000430343D2
:100A50000CD0C1F30A550024D5EB040564EB040364
:100A6000D617AD1AB34102DB0020014670BD201835
:100A700041EB025170BDC1F30A52C1F3130140F2C0
:100A8000FF3341F480119A4202DA00200146704798
:100A900040F233439A42A2F2334202DC5242FFF761
:100AA0001DBFFFF70CBF000030B5041E71F100043C
:100AB00004DB4FF00044404264EB0101141E73F16B
:100AC000000405DB1C464FF00043524263EB040375
:100AD000994208BF904230BD064C074D06E0E068E1
:100AE00040F0010394E8070098471034AC42F6D375
:100AF000FFF722FB58880008788800082DE9F04DA0
:100B000000231A461B1A8A4103DB00200146BDE878
:100B1000F08DC1F30A52C1F3130141F480154FF077
:100B2000000BD10702D100186D41521E0027044668
:100B300040F2FF11384601EB620A3E46804602460B
:100B400000204FF48011FFF7C9FEC2197141BB1894
:100B500046EB0100B4EB030C75EB000C04D3E41A74
:100B600065EB000517460E46241908F101006D419A
:100B700080463428E3DDF91946EB0600091BA8413D
:100B800003D24FF0FF32134601E0002213461BEB65
:100B9000070046EB0A51BDE8F04DFFF7F8BE000034
:100BA0002DE9F0474FF4A071324800F0BAF8002860
:100BB0005ED03148006888B930480068C043304989
:100BC000C1F894010A2000F08CFA2D48D0F8940165
:100BD000C0432A49086001202749086029A2012151
:100BE000032001F01FF92BA20121042001F01AF9C2
:100BF00000F05AF92B49088008460088FFF75DFD90
:100C000081462949FFF78AFB0446FFF7CDFD0746D9
:100C1000264A274BFFF761FC0546FFF7D8FD25491B
:100C2000086008460068FFF773FD0446012322466A
:100C30000921032001F0D4F81F491E480068FFF77E
:100C40003BFB0546FFF764FD80B2642190FBF1F2A7
:100C500001FB1204022322460B21032001F0C0F8FD
:100C6000642000F032FA4FF4A071024800F03BF823
:100C7000BDE8F0870024014040000020948121421B
:100C800000802142566F6C746167653A302E3030B7
:100C900056000000506F7765723A204572726F728D
:100CA00020200000440000200080A243CDCCCCCC0A
:100CB000CCCC0040480000200000C8420A46002179
:100CC0004168024B1940114341607047FFFD3FFFEF
:100CD0000A460021416821F01F011143416070471D
:100CE00041628262704700220A12D3430360704758
:100CF00021B1826842F00102826003E0826822F042
:100D0000010282607047014600208A6802F00402F6
:100D10000AB1012000E0002070470146C86C80B293
:100D2000704770B502460020002300240B1255685E
:100D3000CEB205EA060415681D4015B10CB10120BC
:100D400000E0002070BD014600208A6802F0080221
:100D50000AB1012000E00020704710B50023CBB29B
:100D60001AB144681C43446002E044689C434460F8
:100D700010BD000030B502460020002350680F4C23
:100D800020400D790C6844EA0524204350609068A7
:100D90000B4C2040D1E902542C434D7944EA4504E0
:100DA00020439060D06A20F470000C7C641EE4B292
:100DB000234340EA0350D06230BD0000FFFEF0FF45
:100DC000FDF7F1FFF0B504460D4600200021092D86
:100DD00011DDE068A5F10A0606EB4607072606FACC
:100DE00007F18843A5F10A0606EB460603FA06F169
:100DF0000843E0600CE0206905EB4507072606FA8A
:100E000007F1884305EB450603FA06F10843206124
:100E1000072A0FDA606B561E06EB86071F2606FAB6
:100E200007F18843561E06EB860605FA06F10843CD
:100E3000606322E00D2A0FDA206BD61F06EB8607CF
:100E40001F2606FA07F18843D61F06EB860605FA29
:100E500006F10843206310E0E06AA2F10D0606EBFC
:100E600086071F2606FA07F18843A2F10D0606EB56
:100E7000860605FA06F10843E062F0BD816841F09C
:100E800008018160704721B1826842F4A00282604B
:100E900003E0826822F4A00282607047816841F01A
:100EA000040181607047000010B50248FFF735FF6C
:100EB00010BD00000024014000B587B001214802A8
:100EC00001F08EF80121102001F08AF84FF4004063
:100ED00001F05AF800208DF81B000820ADF818002A
:100EE00003208DF81A0006A92F4800F06AF905239F
:100EF00001220D212D48FFF765FF0020019004908D
:100F00004FF46020039001208DF8090000208DF837
:100F1000080001208DF8140001A92448FFF72AFFDA
:100F200001212248FFF7E4FE2048FFF7A7FF00BF9A
:100F30001E48FFF708FF0128FAD01C48FFF7AEFF54
:100F400000BF1A48FFF7DFFE0128FAD00121174839
:100F5000FFF799FF00211548FFF7B0FE40F67462D5
:100F600040F6FF711148FFF7BBFE0D210F48FFF758
:100F7000AFFE0F490D48FFF7A1FE01224FF4A0710B
:100F80000A48FFF7EAFE12208DF8000000208DF8D5
:100F900001008DF8020001208DF80300684600F082
:100FA00089FD07B000BD0000001001400024014091
:100FB0000002800010B5FFF777FF0446B4F57A6FA2
:100FC00005DD06A20121042000F02CFF04E007A2A9
:100FD0000121042000F026FF10BD0000506F77654E
:100FE000723A204E6F726D616C000000506F776531
:100FF000723A2044616E67657200000008B50121F5
:10100000082000F0EDFF2020ADF8000010208DF842
:10101000030003208DF802006946024800F0D1F871
:1010200008BD0000000C014010B508480068C0432E
:101030000749C1F89401012000F053F80448D0F8A2
:101040009401C0430249C1F8940110BD948121422A
:101050000080214200BFFEE770B50546012D16D184
:10106000002411E01649095D0C31C8B2012106F0D7
:10107000C7F804F11001C8B2012106F0C1F801213E
:10108000022006F0BDF8641C032CEBDB17E0022DF8
:1010900015D1002411E00B49095D0C31C8B20121C2
:1010A00006F0AEF804F11001C8B2012106F0A8F86C
:1010B0000121022006F0A4F8641C032CEBDB70BDB8
:1010C0000300002006000020704700B5034603E03F
:1010D0004FF47A7000F011F8181EA3F10103F7D154
:1010E00000BD10B5044603E04FF47A70FFF7EDFF42
:1010F000201EA4F10104F7D110BD00EBC001C9000E
:101100004FF0E0225161002191610521116100BF82
:101110004FF0E021096901F480310029F8D0042161
:101120004FF0E022116170472DE9FF4706460F4658
:1011300015469846DDE90D9A0C9C00200090019020
:10114000029003908DF80060FD208DF801008DF86D
:10115000027028128DF80300E8B28DF804008DF8B3
:101160000580200E8DF80600200C8DF80700200A5F
:101170008DF80800E0B28DF809008DF80A908DF81E
:101180000BA06B208DF80C000D21684606F04EF97F
:10119000BDE8FF871FB50446002000900190029033
:1011A00003908DF80040FF208DF8010066208DF837
:1011B00002006B208DF803000421684606F036F922
:1011C0001FBD2DE9F0410246002500260020002326
:1011D0000024002791F803C00CF00F0591F803C01C
:1011E0000CF0100CBCF1000F03D091F802C04CEAD7
:1011F000050591F800C0BCF1000F31D01468002043
:101200002BE04FF0010C0CFA00F3B1F800C00CEA2F
:1012100003069E4220D183004FF00F0C0CFA03F717
:10122000BC4305FA03FC4CEA040491F803C0BCF18A
:10123000280F06D14FF0010C0CFA00FCC2F814C0C4
:101240000AE091F803C0BCF1480F05D14FF0010C42
:101250000CFA00FCC2F810C0401C0828D1D314605E
:10126000B1F800C0BCF1FF0F34DD546800202EE05F
:1012700000F1080C4FF0010808FA0CF3B1F800C0B7
:101280000CEA03069E4221D183004FF00F0C0CFAAA
:1012900003F7BC4305FA03FC4CEA040491F803C0CD
:1012A000BCF1280F05D100F1080C08FA0CF8C2F8BF
:1012B000148091F803C0BCF1480F07D100F1080C6D
:1012C0004FF0010808FA0CF8C2F81080401C0828FA
:1012D000CED35460BDE8F081F0B50A460023002467
:1012E0000021002500F00046B6F1004F02D11D4E4E
:1012F000F16901E01B4E7168C0F3034583B200F44D
:101300004016B6F5401F08D121F07061154E766881
:1013100026F07066134F7E6012E000F48016B6F57A
:10132000801F06D1032606FA05F4A14341F070613F
:1013300006E0460D360103FA06F6B14341F070614E
:1013400022B1460D360103FA06F6314300F000469D
:10135000B6F1004F02D1034EF16101E0014E716020
:10136000F0BD000000000140016170474FF6FF71C1
:101370000180022181700421C17070470AB10161AE
:1013800000E04161704700BFFEE7000070B5044611
:101390001548006820F0407013490860084600684E
:1013A00040F080700860002010490860002517E0B8
:1013B000E0090E49091D08606006040E0220FFF7CF
:1013C0009CFE01200A49C1F8AC010220FFF795FEFE
:1013D0000020064908600220FFF78FFE681CC5B296
:1013E000082DE5DB70BD000004080140AC0121427E
:1013F0000000214210B50F48006820F040700D49F0
:1014000008600846006840F08070086001200A49C2
:1014100008600A49C1F8AC010420FFF76EFE002005
:10142000054908600420FFF768FE00200349C1F861
:10143000AC0110BD04080140B0012142000021426E
:1014400010B50F48006820F040700D49086008464C
:10145000006840F08070086000200A4908600A496E
:10146000C1F8B0010420FFF748FE012005490860DB
:101470000549C1F8B0010420FFF73FFE10BD000090
:1014800004080140AC0121420000214210B50024B3
:101490001348006820F04070114908600846006851
:1014A000086001200F490860FFF727FE01200E4960
:1014B000C1F8AC01FFF721FE07E0601CC4B2FA2CB2
:1014C00003DDFFF7BDFF012010BD0648803800682E
:1014D0000028F2D10349091F086000BFF4E70000AB
:1014E00004080140B00121420000214210B501F082
:1014F00001FCFFF783FD00F08BF904F0BBFE00F068
:1015000030FBFFF7D9FC02F01DF84FF4165002F043
:1015100077F84FF4165002F03DF94FF4E13001F046
:1015200053FE4FF4165001F06BFF4FF4FA70FFF7C3
:10153000CCFD04F00BFD0121084605F061FE4FF4DF
:10154000FA70FFF7C2FD06A20121084600F06AFC0E
:10155000FFF730FD4FF4FA70FFF7B7FD10BD000044
:10156000496E6974204F4B0010B500200E49086089
:101570000E48006820F0F0200C490860084600681A
:1015800040F04050086000200949C1F89C0100F07B
:1015900011F801200449086000F00CF8002004490B
:1015A000C1F8980110BD000098812142000C014053
:1015B0000080214210B50220FFF79FFD10BD000002
:1015C00008B50121092000F00BFD01210C48FFF7AF
:1015D00083FE0121082000F003FDC020ADF80000CB
:1015E00010208DF8030003208DF80200694605489D
:1015F000FFF7E7FDC0210348FFF7B6FE08BD000076
:1016000000023000000C014010B500200E490860B7
:101610000E48006820F0F0200C4908600846006879
:1016200040F04050086001200949C1F89C01FFF7D3
:10163000C1FF012004490860FFF7BCFF00200449F6
:10164000C1F8980110BD000098812142000C0140B2
:101650000080214270B5054600241648006820F03D
:101660007040144908600846006840F00040086077
:10167000002614E0002010490860FFF79BFF0120BE
:101680000E49C1F898016006040E0B487C380068CA
:1016900008B1601CC4B2FFF78DFF701CC6B2082EE3
:1016A000E8DB15B9FFF7B0FF01E0FFF75DFF20466B
:1016B00070BD0000000C0140988121420080214251
:1016C00070B504461248006820F0F0201049086008
:1016D0000846006840F04050086000200D4908604E
:1016E000002512E0E0090B49091D08606006040EA0
:1016F00001200949C1F89801FFF75CFF0020054966
:101700000860FFF757FF681CC5B2082DEADB70BD03
:10171000000C0140988121420080214210B50E4802
:10172000006820F0F0200C4908600846006840F08E
:10173000405008600120094908600949C1F8980132
:10174000FFF738FF002005490860FFF733FF00204E
:101750000349C1F8980110BD000C01409C81214251
:101760000080214210B50E48006820F0F0200C499E
:1017700008600846006840F04050086000200949B1
:1017800008600949C1F89C01FFF714FF01200549D1
:1017900008600549C1F89C01FFF70CFF10BD00006F
:1017A000000C0140988121420080214210B50024A4
:1017B0001448006820F0704012490860084600682C
:1017C00040F00040086001200F490860FFF7F2FE7A
:1017D00001200E49C1F89801FFF7ECFE07E0601CFC
:1017E000C4B2FA2C03DDFFF7BDFF012010BD06488F
:1017F000803800680028F2D10349091F086000BF43
:10180000F4E70000000C01409C812142008021424D
:1018100010B5FFF7D5FE80216B2000F0D7F83220FD
:10182000FFF753FC00216B2000F0D0F8032000F0FC
:101830008BF8002000F080F8C82000F0AAF8002102
:10184000382000F0C3F800216A2000F0BFF8002122
:10185000232000F0BBF88021372000F0B7F8752076
:1018600000F013F80446682C0BD101216B2000F026
:10187000ADF800216C2000F0A9F8C82000F089F82C
:1018800001E0012010BD0020FCE770B50446FFF721
:1018900045FFD020FFF714FFFFF788FF2046FFF732
:1018A0000FFFFFF783FFFFF739FFD120FFF708FF96
:1018B000FFF77CFF0020FFF7CDFE0546FFF752FF44
:1018C000284670BD2DE9F04106460F4614461D46D8
:1018D000FFF724FF002141EA4601C8B2FFF7F0FEFE
:1018E000FFF764FF20B1FFF73DFF0120BDE8F08165
:1018F0003846FFF7E5FEFFF759FFFFF70FFF01211D
:1019000001EB4601C8B2FFF7DBFEFFF74FFF0DE02A
:10191000012C04D10020FFF79DFE287003E0012078
:10192000FFF798FE2870601EC4B26D1C002CEFD12A
:10193000FFF718FF0020D9E710B50446E006010EB6
:101940001C2000F043F810BD10B50446E006010E5F
:101950001B2000F03BF810BD70B504460025BC2CE0
:1019600001DB012510E0622C01DB02250CE02A2CB2
:1019700001DB032508E0142C01DB042504E00A2C1C
:1019800001DB052500E0062529461A2000F01EF897
:1019900070BD70B50446B4F57A7F01DD4FF47A74FA
:1019A000042C00DA04244FF47A7090FBF4F0401E0B
:1019B000C5B22946192000F009F80546264604EB71
:1019C000D671C1F34F00FFF7C7FF70BD70B5054674
:1019D0000C46FFF7A3FED020FFF772FEFFF7E6FEEE
:1019E00018B1FFF7BFFE012070BD2846FFF768FE63
:1019F000FFF7DCFE2046FFF763FEFFF7D7FE18B1C6
:101A0000FFF7B0FE0120EFE7FFF7ACFE0020EBE7A9
:101A10002DE9F04105460E4617469846FFF77EFE33
:101A2000002141EA4501C8B2FFF74AFEFFF7BEFEBA
:101A300020B1FFF797FE0120BDE8F0813046FFF7A7
:101A40003FFEFFF7B3FE00240CE018F80400FFF798
:101A500037FEFFF7ABFE18B1FFF784FE0120EBE77E
:101A6000601CC4B2BC42F0DBFFF77CFE0020E3E761
:101A700030B5024600230024002013E0155C312D10
:101A800004D0322D04D0332D06D103E0012403E02D
:101A9000022401E0032400BF00BF03EB830504EB35
:101AA0004503401C8842E9DB184630BD00BFFEE715
:101AB0007047000070B5002100230F22C47804B3E2
:101AC000154C246804F4E064C4F5E064210AC1F113
:101AD0000403CA40447804FA03F184781440214393
:101AE00009010E4C0678A155047804F01F05012465
:101AF000AC4005786D11AD0005F1E025C5F8004159
:101B000009E0047804F01F050124AC40044D067878
:101B1000761145F8264070BD0CED00E000E400E0D1
:101B200080E100E002490143024A11607047000071
:101B30000000FA050CED00E070B500240EE0002175
:101B4000204600F0D7F8002504E0002000F096F9C8
:101B5000681CC5B2802DF8DB601CC4B2082CEEDB1B
:101B600070BD70B5002406E0002500E06D1CB5F5E1
:101B70007A7FFBD3641CB4F57A7FF5D300F052F87A
:101B8000AE2000F063F9D52000F060F9802000F06D
:101B90005DF9A82000F05AF93F2000F057F9D32052
:101BA00000F054F9002000F051F9402000F04EF907
:101BB000A12000F04BF9C82000F048F9DA2000F02D
:101BC00045F9122000F042F9812000F03FF9CF20C2
:101BD00000F03CF9D92000F039F9F12000F036F995
:101BE000DB2000F033F9302000F030F9A42000F0C1
:101BF0002DF9A62000F02AF98D2000F027F91420F5
:101C000000F024F9AF2000F021F9FFF795FF70BD37
:101C100010B50246012000E050430B1EA1F1010166
:101C2000FAD110BD08B50121042000F0D9F9102027
:101C30008DF8030003208DF802000220ADF80000AB
:101C400069461C48FFF7BDFA1020ADF80000694650
:101C50001848FFF7B6FA2020ADF80000694615488D
:101C6000FFF7AFFA4020ADF8000069461148FFF7D2
:101C7000A8FA8020ADF8000069460E48FFF7A1FAE7
:101C8000002280210B48FFF779FB012240210948FF
:101C9000FFF774FB012220210648FFF76FFB0122AA
:101CA00010210448FFF76AFB012202210148FFF7D7
:101CB00065FB08BD0008014070B50546002413E02F
:101CC0008020204100EA050240210948FFF756FB29
:101CD000012280210648FFF751FB002280210448A1
:101CE000FFF74CFB601CC4B2082CE9DB70BD0000A0
:101CF0000008014070B505460C4645F0B00000F004
:101D0000A5F8102141EA141000F0A0F804F00F002B
:101D100000F09CF870BD00002DE9F04105460E462C
:101D20001746721ED206110E6A1E5206100EFFF7DB
:101D3000E1FF002409E0A7F12001134A02EB0111A1
:101D4000085D00F09BF8601CC4B2082CF3DB721E27
:101D5000D206110E6A1E012303EB4202D0B2FFF736
:101D6000C9FF00240BE0A7F12001074A02EB011292
:101D700004F10801505C00F081F8601CC4B2082C2A
:101D8000F1DBBDE8F0810000307500082DE9F04777
:101D900081460E4690461F4600241DE0381B411E1A
:101DA0001020FFF735FFB8FBF0F000F00F050A2D0B
:101DB00008DA05F13000C2B23019C1B24846FFF767
:101DC000ABFF07E005F13700C2B23019C1B2484697
:101DD000FFF7A2FF601CC4B2BC42DFDBBDE8F087A6
:101DE0002DE9F04780460E4617461D46002415E0B3
:101DF000281B411E0A20FFF70BFFB7FBF0F00A215A
:101E0000B0FBF1F201FB120000F130093019C1B250
:101E10004A464046FFF780FF601CC4B2AC42E7DB95
:101E2000BDE8F0872DE9F04107460E46154600242F
:101E300007E02A5D3019C1B23846FFF76DFF601C1C
:101E4000C4B2285D0028F4D1BDE8F08110B5044685
:101E5000002202210848FFF791FA002210210648CB
:101E6000FFF78CFA2046FFF727FF012202210248E4
:101E7000FFF784FA10BD00000008014010B50446C9
:101E8000002202210848FFF779FA012210210648B2
:101E9000FFF774FA2046FFF70FFF012202210248E4
:101EA000FFF76CFA10BD00000008014010B50446B1
:101EB000012C0ED0022C19D100200D4908700221EE
:101EC0000C4801F000FE00BF094800780128FBD152
:101ED0000CE00020084908700121064801F0F3FDDC
:101EE00000BF054800780128FBD100BF00BF10BD2E
:101EF00000000020005000400100002070B50546A1
:101F00000C46FFF777FA8020FFF740FAFFF7BEFA9A
:101F10002846FFF73BFAFFF7B9FA2046FFF736FAF3
:101F2000FFF7B4FAFFF78CFA70BD704770B505463D
:101F3000012D11D100240CE0E11DC8B2012105F0F2
:101F40005FF90F49095D0931C8B2012105F058F95F
:101F5000641C032CF0DB12E0022D10D100240CE0F5
:101F6000E11DC8B2012105F04BF90649095D0931AF
:101F7000C8B2012105F044F9641C032CF0DB70BDEC
:101F8000030000200600002001460020034A50689C
:101F900020F44040084350607047000000100240A9
:101FA00029B1064AD2690243044BDA6104E0034ACC
:101FB000D2698243014BDA61704700000010024091
:101FC00029B1064A12690243044B1A6104E0034A2C
:101FD00012698243014B1A617047000000100240F1
:101FE00029B1064A92690243044B9A6104E0034A0C
:101FF00092698243014B9A617047000000100240D1
:1020000029B1064AD2680243044BDA6004E0034A6D
:10201000D2688243014BDA60704700000010024032
:1020200030B500210022002400232D4D6D6805F0FD
:102030000C0121B1042905D0082923D105E0294D3F
:10204000056022E0274D05601FE0254D6D6805F411
:102050007012234D6D6805F48034022505EB924221
:102060001CB9214D554305600BE01D4D6D6805F40D
:1020700000351DB11C4D5543056002E0194D554317
:10208000056002E0174D056000BF00BF144D6D688C
:1020900005F0F0010909154D6B5C0568DD404560F0
:1020A0000F4D6D6805F4E061090A104D6B5C4568E1
:1020B000DD4085600A4D6D6805F46051C90A0B4D1D
:1020C0006B5C4568DD40C560054D6D6805F44041B9
:1020D000890B074D6B5CC568B5FBF3F5056130BD39
:1020E0000010024000127A0000093D004C00002060
:1020F0005C0000202DE9FC5F4FF0010A4FF0000B5F
:1021000000200190D5E00120FFF7D0FE6C48407818
:10211000062810D15020C82300226A4900900120CF
:1021200000F07EFA5020C823002267490090042066
:1021300000F076FABDE06248007852280EDC604874
:10214000007844280ADB5E484078492806DC5C4871
:1021500040783D2802DB4FF0000AAEE05848007896
:1021600044281EDA5648007814281ADD54490878A5
:10217000FEF7A8FA8046554A554BFEF7B4F90646D5
:10218000544A554BFEF7ACF90446FEF720FB834654
:102190006420C823002259460090022000F040FA33
:1021A0000FE047480078522803DC4548007814289F
:1021B00007DC6420C823002248490090012000F079
:1021C0002FFA3F4840783D2837DA3D4840782D289F
:1021D00033DD3B4840783D280CDA394840783528D3
:1021E00008DB6420C82300223D490090032000F052
:1021F00017FA5DE032484078352859DA304840789F
:102200002D2855DD2E494878FEF75CFA0646354AFA
:10221000354BFEF768F98046344A354BFEF760F9D6
:102220000446FEF7D4FA01906420C82300220090EF
:102230000320019900F0F4F93AE0214840785F2842
:1022400036DA1F484078492832DD1D484078492851
:102250000CDD1B484078502808DA6420C82300228F
:1022600024490090042000F0DBF921E01448407874
:102270005F281DDA12484078502819DB1049487849
:10228000FEF720FA06461C4A1C4BFEF72CF9804646
:102290001B4A1C4BFEF721F90446FEF798FA019001
:1022A0006420C823002200900420019900F0B8F9AE
:1022B00000BFBAF1000F7FF426AF00BFBDE8FC9F5E
:1022C0003A0000209A99193EEC51B83D091B9E5ED8
:1022D00029CB703FC8073D9B559FD33FCDCCCC3D0C
:1022E0000AD7A33C94F6065F984C753FB29DEFA7C2
:1022F000C64BD73F0AD7233D158C4AEA0434713FB9
:10230000894160E5D022D33F08B564204FF4BE7305
:10231000002268490090032000F082F964204FF405
:10232000BE73002264490090012000F079F9022078
:1023300000F0BEFD0121022004F062FF64204FF492
:10234000BE7300225D490090012000F069F9AA20C7
:102350004FF4BE7300225A490090042000F060F947
:10236000C820FEF7B2FE0220FFF7A0FD012000F01A
:1023700039FDAA204FF4BE73002252490090032079
:1023800000F04EF964204FF4BE7300224E490090D5
:10239000022000F045F9002003465A220146009031
:1023A000052000F03DF964204FF4BE730022474938
:1023B0000090012000F034F964204FF4BE73002235
:1023C00042490090012000F02BF9002003465A22D8
:1023D00001460090052000F023F964204FF4BE73FD
:1023E00000223B490090042000F01AF90121062048
:1023F00004F006FF4FF47A70FEF767FEFFF77AFEEF
:10240000AA204FF4BE73002232490090032000F04E
:1024100007F90120FFF78AFD0121022004F0F0FEF8
:102420000120FEF719FEAA204FF4BE7300222A49AC
:102430000090032000F0F4F878204FF4BE730022DF
:1024400026490090022000F0EBF8002003465A22B3
:1024500001460090062000F0E3F864204FF4BE73BC
:1024600000221A490090022000F0DAF864204FF4AC
:10247000BE7300221A490090042000F0D1F8012117
:10248000062004F0BDFE4FF47A70FEF71EFEFFF743
:1024900031FEAA204FF4BE7300220E4900900320A3
:1024A00000F0BEF80120FFF741FD0121022004F0F9
:1024B000A7FE08BD3333733F9A99494054E3354032
:1024C000295C8F3ECDCCCC3EF628DC3F000060403E
:1024D000B81E053E295C0F3EAE47613E1F854B404E
:1024E0005C8FC23E7047000070B505460E46002462
:1024F00008E0295D054801F0E6FA3220FEF7E5FD27
:10250000601C84B2B442F4DB70BD000000440040A3
:1025100070B505460E46002408E0295D054801F027
:10252000D2FA3220FEF7D1FD601C84B2B442F4DB53
:1025300070BD00000048004010B500F001F810BD6B
:102540000CB50020019000903348006840F48030C2
:102550003149086000BF3048006800F40030009046
:102560000198401C0190009818B90198B0F5A06F2F
:10257000F1D12948006800F4003010B1012000902A
:1025800001E0002000900098012843D12348006812
:1025900040F01000214908600846006820F0030060
:1025A00008600846006840F0020008601A48406869
:1025B000194948600846406848600846406840F449
:1025C000806048600846406820F47C1048600846F7
:1025D000406840F4E81048600846006840F08070A9
:1025E000086000BF0C48006800F000700028F9D0B7
:1025F0000948406820F003000749486008464068E1
:1026000040F00200486000BF0348406800F00C0042
:102610000828F9D10CBD0000001002400020024043
:102620000FB589B000200690059003208DF81400A6
:102630003A208DF815006B208DF816000A9804904A
:10264000099801287ED121E0032105A804F0EEFEBF
:102650000A20FEF73AFDFE48807800F002000228CA
:1026600006D14FF4FA70FEF730FD0020F9490870EA
:102670000698B0F5617F06DD4FF4FA70FEF725FD90
:102680000020F44908700698401C0690F148007834
:102690000028D9D1F0480499FDF70EFE0290FEF70C
:1026A00037F8012100220390CDE90121009000219B
:1026B00001200E9B0C9AFEF737FD0A20FEF705FD60
:1026C000E5480499FDF7F8FD0290FEF721F8012195
:1026D00000220390CDE901210090002102200E9BF1
:1026E0000C9AFEF721FD0A20FEF7EFFCDA48049968
:1026F000FDF7E2FD0290FEF70BF8012100220390A6
:10270000CDE90121009003200E9B0C9AFEF70CFDF1
:102710000A20FEF7DAFCD0480499FDF7CDFD0290BF
:10272000FDF7F6FF012100220390CDE90121009081
:1027300004200E9B0C9AFEF7F7FC0A20FEF7C5FC5E
:10274000002000E008E0FEF725FD0A20FEF7BDFCB2
:102750000120C0490870ABE2099802287ED121E02F
:10276000032105A804F062FE0A20FEF7AEFCB8487B
:10277000807800F00200022806D14FF4FA70FEF7CC
:10278000A4FC0020B34908700698B0F5617F06DD0F
:102790004FF4FA70FEF799FC0020AE4908700698D5
:1027A000401C0690AB4800780028D9D1AA4804996B
:1027B000FDF782FD0290FDF7ABFF0121002203909F
:1027C000CDE90121009008460E9B0C9AFEF7ACFC67
:1027D0000A20FEF77AFCA0480499FDF76DFD0290EF
:1027E000FDF796FF012100220390CDE90121009021
:1027F00002200E9B0C9AFEF797FC0A20FEF765FC60
:1028000095480499FDF758FD0290FDF781FF0121DD
:1028100000220390CDE901210090002103200E9BAE
:102820000C9AFEF781FC0A20FEF74FFC8A480499B7
:10283000FDF742FD0290FDF76BFF0121002203909E
:10284000CDE901210090002104200E9B0C9AFEF797
:102850006BFC0A20FEF739FC002000E008E0FEF7E0
:1028600099FC0A20FEF731FC01207A4908701FE22A
:10287000099803287ED121E0032105A804F0D6FDA4
:102880000A20FEF722FC7248807800F0020002283D
:1028900006D14FF4FA70FEF718FC00206D4908705D
:1028A0000698B0F5617F06DD4FF4FA70FEF70DFC77
:1028B0000020684908700698401C0690654800781A
:1028C0000028D9D164480499FDF7F6FC0290FDF781
:1028D0001FFF012100220390CDE90121009008464D
:1028E0000E9B0C9AFEF720FC0A20FEF7EEFB5A48DE
:1028F0000499FDF7E1FC0290FDF70AFF0121002297
:102900000390CDE901210090002102200E9B0C9A3A
:10291000FEF70AFC0A20FEF7D8FB4F480499FDF7A2
:10292000CBFC0290FDF7F4FE012100220390CDE9DB
:102930000121009003200E9B0C9AFEF7F5FB0A2064
:10294000FEF7C3FB44480499FDF7B6FC0290FDF77F
:10295000DFFE012100220390CDE90121009000213A
:1029600004200E9B0C9AFEF7DFFB0A20FEF7ADFB5E
:10297000002000E008E0FEF70DFC0A20FEF7A5FBB2
:1029800001203449087093E10998042866D121E0B8
:10299000032105A804F04AFD0A20FEF796FB2C4807
:1029A000807800F00200022806D14FF4FA70FEF79A
:1029B0008CFB0020274908700698B0F5617F06DD82
:1029C0004FF4FA70FEF781FB002022490870069848
:1029D000401C06901F4800780028D9D11E48049951
:1029E000FDF76AFC0290FDF793FE0121002203909F
:1029F000CDE901210090002101200E9B0C9AFEF7E9
:102A000093FB0A20FEF761FB13480499FDF754FC81
:102A10000290FDF77DFE012100220390CDE9012106
:102A2000009002200E9B0C9AFEF77EFB0A20FEF718
:102A30004CFB09480499FDF73FFC0290FDF768FE46
:102A4000012100220390CDE901210090002106E040
:102A50009C000020020000200000484526E00320E2
:102A60000E9B0C9AFEF760FB0A20FEF72EFB9148A6
:102A70000499FDF721FC0290FDF74AFE0121002296
:102A80000390CDE90121009004200E9B0C9AFEF7E3
:102A90004BFB0A20FEF719FB0020FEF77BFB0A2008
:102AA000FEF713FB01208449087001E1099805280D
:102AB0007BD121E0032105A804F0B8FC0A20FEF731
:102AC00004FB7E48807800F00200022806D14FF413
:102AD000FA70FEF7FAFA0020774908700698B0F508
:102AE000617F06DD4FF4FA70FEF7EFFA00207249BD
:102AF00008700698401C06906F4800780028D9D1CD
:102B00000B98FDF7DFFD6E4A6E4BCDE90001FDF736
:102B1000EAFCCDE90201FDF72EFE0790012100221B
:102B200007986E23CDE9012100904FF49672084674
:102B3000FEF7FAFA0A20FEF7C8FA012100220798E8
:102B40006E23CDE9012100904FF496720220FEF72A
:102B5000EBFA0A20FEF7B9FA0121002207986E234A
:102B6000CDE9012100904FF496720320FEF7DCFAC4
:102B70000A20FEF7AAFA0121002207986E23CDE968
:102B8000012100904FF496720420FEF7CDFA0A203E
:102B9000FEF79BFA0020FEF7FDFA0A20FEF795FAF1
:102BA00001204549087083E0FFE7099806287FD196
:102BB00021E0032105A804F039FC0A20FEF785FA7C
:102BC0003E48807800F00200022806D14FF4FA70E7
:102BD000FEF77BFA0020384908700698B0F5617F4F
:102BE00006DD4FF4FA70FEF770FA002032490870E3
:102BF0000698401C0690304800780028D9D10B98E0
:102C0000FDF760FD304A314BCDE90001FDF76BFC6B
:102C1000CDE90201FDF7AFFD0790012100220798E1
:102C20006E23CDE9012100904FF49672002101201E
:102C3000FEF77AFA0A20FEF748FA012100220798E7
:102C40006E23CDE9012100904FF4967200210220FD
:102C5000FEF76AFA0A20FEF738FA012100220798E7
:102C60006E23CDE9012100904FF4967200210320DC
:102C7000FEF75AFA0A20FEF728FA012100220798E7
:102C80006E23CDE9012100904FF4967200210420BB
:102C9000FEF74AFA0A20FEF718FA0020FEF77AFA41
:102CA0000A20FEF712FA0120034900E000E0087054
:102CB0000DB000BD00004845020000209C0000202F
:102CC000EC51B81E85EB4540CDCCCCCCCCCC4540AE
:102CD0000EB504A207CA8DE8070009216846FFF770
:102CE00017FC0EBD7E000801000201ABCD00000004
:102CF0007047000010B51348006840F0010011490A
:102D0000086008464068104908400E494860084677
:102D100000680E4908400B4908600846006820F426
:102D2000802008600846406820F4FE0048604FF4A8
:102D30001F008860FFF700FC4FF000600449086046
:102D400010BD0000001002400000FFF8FFFFF6FE7B
:102D500008ED00E00FB470B59CB0FF2521A80190EC
:102D6000652102A8019B209A00F0D8FE06460020AB
:102D7000019000240CE002A8015D194800F0A3FEB8
:102D800000BF8021164800F0D1FD0028F9D0641C56
:102D9000B442F0DB2946124800F095FE00BF8021C6
:102DA0000F4800F0C3FD0028F9D029460C4800F078
:102DB0008AFE00BF80210A4800F0B8FD0028F9D043
:102DC0002946074800F07FFE00BF8021044800F03C
:102DD000ADFD0028F9D01CB070BC5DF814FB0000FC
:102DE000004C004038B505462C488078442809DD61
:102DF00064204FF4BE730022294900900420FFF79D
:102E00000FFC10E0254880783B280CDD23488078B3
:102E1000442808DC64204FF4BE730022214900904E
:102E20000420FFF7FDFB012D02D0022D34D11BE061
:102E3000002416E012E0194800781B49095D884219
:102E400009D1E11CC8B2012104F0DAF90121022004
:102E500004F0D6F903E00220FFF728F8EBE700BF03
:102E6000641C032CE6DB17E0002412E00EE00B48A4
:102E700000780E49095D884205D1E11CC8B20121E4
:102E800004F0BEF903E00220FFF710F8EFE700BFFF
:102E9000641C032CEADB00BF00BF38BD34000020F7
:102EA000CDCC4C3ECDCCCC3D030000200600002014
:102EB00070B588B00546092D7DD2DFE805F07C05A8
:102EC00087C6CDFDFCFBFA000124012100224FF44E
:102ED000486304FB03F06423CDE9012100904FF423
:102EE000967200210120FEF71FF90A20FEF7EDF887
:102EF000012100224FF4486304FB03F06423CDE971
:102F0000012100904FF4967200210220FEF70CF987
:102F10000A20FEF7DAF8012100224FF4486304FB8F
:102F200003F06423CDE9012100904FF49672032051
:102F3000FEF7FAF80A20FEF7C8F8012200214FF444
:102F4000486304FB03F064238DE807004FF4967296
:102F500001210420FEF7E8F80A20FEF7B6F8002069
:102F6000FEF718F90A20FEF7B0F80020049005904B
:102F70000690079001208DF810003A208DF811007E
:102F80006B208DF8120020E0032104A804F04EFA13
:102F90004FF4FA70FEF799F86B480078012814D1C5
:102FA0006A48807800F00200022807D10C216848A6
:102FB00000F089FD00E0C3E0FEF736F80421634825
:102FC000FFF792FA002060490870DDE704E0FFF7A0
:102FD0007FFE0A20FEF779F85E4800680028F6D0E8
:102FE0005D4804685D4806686420FEF76EF80021BD
:102FF0005BA0FFF7AFFE584801685CA0FFF7AAFE90
:10300000564801685CA0FFF7A5FE6420FEF75DF856
:10301000032017E00A2194FBF1F201FB1241CAB22E
:10302000411E584B5A540A2194FBF1F496FBF1F2DD
:1030300001FB1261CAB2411E534B5A540A2196FB3E
:10304000F1F6401E0028E5DC7AE00323DE220121B0
:103050000846FEF7C5FE73E041F28830FEF735F80A
:103060002DE04A4A4A494B4802F0F2FF47480068BF
:10307000FDF74EFB04460323224601210220FEF702
:10308000AFFE44480068FDF743FB04460323224695
:1030900005210220FEF7A4FE3D480068FDF738FB3D
:1030A00004460323224609210220FEF799FE6420EC
:1030B00003E043E015E013E002E0FEF706F8D0E796
:1030C000FDF7B2FF552001F091FD04462246002194
:1030D000022004F001F94FF47A70FDF7F6FF2FE0BB
:1030E0002EE000204FF4C862CDE9002064234FF4A5
:1030F0009672012102900520FEF716F80A20FDF7CE
:10310000E4FF00204FF48C52CDE9002064234FF4FB
:103110009672012102900620FEF706F80A20FDF7BC
:10312000D4FF8C2001F062FD0446224600210220DB
:1031300004F0D2F80A20FDF7C8FF01E000BFFEE767
:1031400000BF08B070BD0000180000209C000020E7
:10315000004400402000002024000020280000201F
:103160006E302E76616C3D25640000006E312E7647
:10317000616C3D25640000006E322E76616C3D2549
:10318000640000000300002006000020140000205E
:10319000100000200C00002010B540F22551094815
:1031A00000F0D1FB01280BD1064800F087FCC4B227
:1031B000204604F09FF940F22551024800F04DFBF3
:1031C00010BD0000004C004010B586B0044601213F
:1031D0001120FEF705FF05A8FEF7C8F84FF4806040
:1031E000ADF8140018208DF8170003208DF8160094
:1031F00005A92848FDF7E5FF05A8FEF7B7F84FF445
:103200000060ADF8140004208DF8170005A92148CE
:10321000FDF7D7FF0121C804FEF7C2FE1E4800F0EB
:1032200037FB01A800F053FC01940020ADF8080022
:10323000ADF80A00ADF80C000C20ADF80E0000202F
:10324000ADF8100001A9144800F0CCFB2021124871
:1032500000F0FAFA1021104800F0F6FA012240F2CC
:1032600025510D4800F099FB01210B4800F004FBAB
:1032700034208DF8000001208DF8010002208DF827
:10328000020001208DF803006846FEF713FC06B02B
:1032900010BD000000100140004C004010B540F28D
:1032A00025514E4800F04FFB01287DD14B4800F0DE
:1032B00005FCC4B24A48007858B9FF2C03D101205C
:1032C0004749087030E0EE2C2ED1022044490870A6
:1032D0002AE043480078012803D0414800780228BA
:1032E00022D1FE2C1BD03E480078012809D13D4850
:1032F0003D49097844543C480078401C3A490870DC
:1033000012E03748007802280ED13848364909784B
:10331000445435480078401C3349087004E0FE2CC2
:1033200002D103202E4908702D480078032848D187
:103330002F48007808BB002004E02A49095C2D4A88
:103340001154401C0328F8DB26480278022301218F
:103350001846FEF745FD234842780223052118460A
:10336000FEF73EFD1F488278022309211846FEF72A
:1033700037FD01201E4908701EE01F480078D8B9AB
:10338000002004E01949095C1C4A1154401C032820
:10339000F8DB16480278022305210320FEF720FD02
:1033A00012484278022300E017E009210320FEF7CB
:1033B00017FD0120104908700020094908700A49CA
:1033C00008700223224601210320FEF7DFFC40F2B1
:1033D0002551024800F041FA00BF10BD00500040E6
:1033E0003E000020340000203F0000203A00002072
:1033F0000000002037000020010000203C000020D9
:1034000010B586B0044601210805FEF7C9FD01216B
:103410003020FEF7E5FD18208DF817004FF480509E
:10342000ADF8140003208DF8160005A91F48FDF71C
:10343000C8FE04208DF81700ADF8140003208DF8A5
:10344000160005A91A48FDF7BCFE01940020ADF84E
:1034500010000C20ADF80E000020ADF80C00ADF807
:103460000A00ADF8080001A9124800F0BBFA0122D9
:1034700040F225510F4800F090FA4FF4A060FEF79B
:1034800051FB35208DF8000001208DF8030003204A
:103490008DF8010002208DF802006846FEF70AFB55
:1034A0000121044800F0E8F906B010BD0010014009
:1034B00000140140005000401CB500200190009015
:1034C00040F225511B4800F03EFA58B11949091D38
:1034D0000988C8B202F0EAF940F22551154800F017
:1034E000BCF925E040F22441124800F02CFAF8B172
:1034F000104800880F48001D008802F0EFF90E49BF
:103500000870002001900AE002F0B8F90B49BDF8FC
:1035100004208854BDF80400401C80B20190BDF81E
:103520000400054909788842EEDB0120044908704F
:103530001CBD000000380140190000209C00002044
:103540001800002010B503F047FE01F07BFB03F0EC
:1035500083FF10BD10B540F22551244800F0F3F967
:10356000012842D1214800F0A9FAC4B220480078CD
:1035700020B1012814D0022830D122E0552C0ED1E0
:103580001C481D49097844541B480078012801D182
:103590001749087018480078401C174908701DE04A
:1035A000144815490978445413480078032802D177
:1035B00002200F49087010480078401C0E4908701E
:1035C0000CE00C48C078082802D101200B49087093
:1035D0000020094908700649087000BF00BF40F28A
:1035E0002551024800F039F900BF10BD00440040E9
:1035F0001C0000201C0100201B0000201D000020DA
:1036000010B586B0044601214804FEF7C9FC01212B
:103610000420FEF7E5FC18208DF817000420ADF813
:10362000140003208DF8160005A92048FDF7C9FDF8
:1036300004208DF817000820ADF8140003208DF841
:10364000160005A91948FDF7BCFD01940020ADF84E
:1036500010000C20ADF80E000020ADF80C00ADF805
:103660000A00ADF8080001A9114800F0BBF90122D9
:1036700040F225510E4800F090F94FF4A060FEF79B
:1036800051FA26208DF8000001208DF80300032058
:103690008DF801008DF802006846FEF70BFA012153
:1036A000034800F0E9F806B010BD00000008014032
:1036B0000044004010B540F225512D4800F043F978
:1036C000012853D12A4800F0F9F9C4B229480078FA
:1036D00028B93F2C44D101202649087040E02548F4
:1036E0000078012814D1402C09D0234823490978B7
:1036F000445422480078401C2049087030E0402C97
:103700002ED101201E49086002201A49087027E0C6
:1037100018480078022823D1002004E01649095CEB
:10372000184A1154401C0328F8DB002005E0124A17
:10373000011D515C144A1154401C0328F7DB03217E
:103740001048FEF795F91149086003210E48FEF76D
:103750008FF90F4908600020064908700749087072
:1037600040F22551024800F078F800BF10BD00007B
:103770000048004033000020A60100203200002055
:10378000200000202C0000202F000020240000201A
:103790002800002010B586B0044601218804FEF7F9
:1037A000FFFB01210820FEF71BFC18208DF81700F5
:1037B0004FF48060ADF8140003208DF8160005A9C1
:1037C0001F48FDF7FEFC04208DF817004002ADF8FD
:1037D000140003208DF8160005A91948FDF7F1FC27
:1037E00001940020ADF810000C20ADF80E00002070
:1037F000ADF80C00ADF80A00ADF8080001A91148B9
:1038000000F0F0F8012240F225510E4800F0C5F812
:103810004FF4A060FEF786F927208DF80000012004
:103820008DF8030003208DF801008DF80200684632
:10383000FEF740F90121034800F01EF806B010BD64
:10384000000C01400048004001F40072B2F5007F16
:1038500000D100BFCA430280704710B50022002388
:1038600040F66A14A14200D100BF0A12012494401C
:10387000A3B2DC43048010BD21B1828942F400521E
:10388000828104E082894DF6FF731A40828170477D
:1038900010B504462048844209D101218803FEF76F
:1038A000AFFB00214FF48040FEF7AAFB32E01B483B
:1038B000844209D101214804FEF782FB00214FF424
:1038C0000030FEF77DFB25E01548844209D1012137
:1038D0008804FEF775FB00214FF48020FEF770FB93
:1038E00018E01048844209D10121C804FEF768FBA2
:1038F00000214FF40020FEF763FB0BE00A488442EE
:1039000008D101210805FEF75BFB00214FF4801070
:10391000FEF756FB10BD0000003801400044004097
:1039200000480040004C004000500040024600208B
:10393000B1F5007F00D100BF13880B400BB101200F
:1039400000E00020704770B50246002400230025E7
:10395000002040F66A16B14200D100BFC1F3421503
:1039600001F01F03012606FA03F3012D02D1968907
:10397000334006E0022D02D1168A334001E0968AD8
:1039800033400C12012606FA04F41688344013B1B1
:103990000CB1012000E0002070BDF0B5034600240A
:1039A00000260025002040F66A17B94200D100BF6A
:1039B0001846C1F3421401F01F06012707FA06F565
:1039C000012C01D10C3004E0022C01D1103000E0B8
:1039D00014301AB107682F43076002E00768AF434D
:1039E0000760F0BD2DE9F04786B005460E4600247D
:1039F000A24600BFA1460027B08900B100BF2F46F4
:103A00002C8A4CF6FF700440F08804432C82AC8969
:103A10004EF6F3100440B088318908437189084399
:103A20000443AC81AC8A4FF6FF400440B0890443A4
:103A3000AC8201A8FEF7F4FA1F48874202D1DDF8F4
:103A400010A001E0DDF80CA0A88900F4004040B10E
:103A50000AEBCA0000EB0A1031684900B0FBF1F82C
:103A600007E00AEBCA0000EB0A1031688900B0FBDE
:103A7000F1F86420B8FBF0F004012009642101FB97
:103A80001089A88900F4004040B1322000EBC90041
:103A9000B0FBF1F000F00700044308E0322000EB37
:103AA00009106421B0FBF1F000F00F0004432C81F9
:103AB00006B0BDE8F0870000003801400146888864
:103AC000C0F308007047C1F30802828070474FF4CA
:103AD0001651016000218180C18001810C2141814A
:103AE00000218181704700BFFEE7000070B50446E9
:103AF0000D460BE000BF0848008800F04000002899
:103B0000F9D014F8011B0448FFF7DDFF281EA5F1CA
:103B10000101CDB2EED170BD004400407CB5044639
:103B200000201D46164600290BD0491ECDE9004154
:103B3000044B6A462946304600F05AF9009A0021A3
:103B400011707CBD1F450008490050EAC12018BF14
:103B500004204A0D18BF40F0010040F2FF72B2EBA2
:103B6000515F08BF40F00200012808BF05207047E0
:103B70002DE9F0414F1E00EBC7010446D1E90001D9
:103B800015461E4637F006020DD02A463346FCF78E
:103B9000AAFC7F1E04EBC703D3E90023FCF7FCFB60
:103BA00037F00602F1D1022F25D0042F13D0062FB3
:103BB00018BFBDE8F0812A463346FCF794FCD4E9EF
:103BC0000A23FCF7E9FB2A463346FCF78CFCD4E9D0
:103BD0000823FCF7E1FB2A463346FCF784FCD4E9D2
:103BE0000623FCF7D9FB2A463346FCF77CFCD4E9D4
:103BF0000423FCF7D1FB2A463346FCF774FCD4E9D6
:103C00000223FCF7C9FB2A463346FCF76CFCD4E9D7
:103C10000023BDE8F041FCF7BFBB0122FCF714BF55
:103C2000FCF7BABB0022134610461146FCF7CDBC88
:103C3000024A00201107FCF707BF000001FDFFFF4B
:103C400002E008C8121F08C1002AFAD17047704765
:103C5000002001E001C1121F002AFBD170470000C3
:103C60000149086070470000980000202DE9FF5FBF
:103C700082B00021DDE90430020DDDF840B00343DD
:103C800018D044F61050A2F2FF3242431514119896
:103C900001281FD0A5EB0B00401C5FEA000A4FF083
:103CA00000064E4FDFF83891B046504615D5CAF1A0
:103CB000000413E0119801244AA3012801D16FEAFE
:103CC0000B010298119AC0E90031C0E9024206B026
:103CD000BDE8F09FCBF10000DFE704460021404A39
:103CE000491842EB0450CDE9001012E0E00707D07C
:103CF00032463B4640464946FCF7F5FB804689463E
:103D000032463B4610461946FCF7EDFB06460F4689
:103D10006410002CEAD1DDE90401DDE90023BAF1E9
:103D2000000F06DAFCF7DFFB42464B46FCF7DBFBF5
:103D300005E0FCF74AFC42464B46FCF746FC0446CD
:103D40000E460022284BFCF7AFFE03D84FF0FF30A1
:103D5000014607E00022254B20463146FCF71CFBBC
:103D6000FCF789FE102409E0002C0ADB0A2200235C
:103D7000FCF774FD039B30321A55641E50EA0102B1
:103D8000F2D1641C039AC4F111031444119A012A5C
:103D900003D0012208430DD10AE0084304D00020DB
:103DA0004FF0110B119072E7A3EB0B056D1E0DE0A8
:103DB0005B4504DD4FF0000205F1010504E003DA84
:103DC0004FF00002A5F10105002AECD002981199EC
:103DD000C0E90231C0E9004579E700000000144065
:103DE0000000F03F300000000000F0430000E03F22
:103DF0002DE9FF4F95B09B468946064600250FE208
:103E0000252877D100242746F84A0121059400E0AF
:103E1000044316F8013F203B01FA03F01042F7D1AA
:103E200030782A2811D06FF02F033078A0F13002BB
:103E3000092A16D8059A44F0020402EB820203EB29
:103E400042021044761C0590EFE759F8042B0592C6
:103E5000002A03DA504244F40054059044F002046E
:103E6000761C30782E2816D116F8010F44F0040481
:103E70002A280DD06FF02F023078A0F13003092BE3
:103E800009D807EB870302EB4303C718761CF3E757
:103E900059F8047B761C30786C280FD006DC4C284F
:103EA00017D068280DD06A2814D104E0742810D0E7
:103EB0007A280FD10DE044F400140AE044F4801491
:103EC00001E044F440147278824202D104F5801477
:103ED000761C761C307866280BD013DC582877D0F7
:103EE00009DC002875D04528F6D04628F4D04728AC
:103EF0001AD19DE118E0632835D0642879D065286F
:103F000012D195E1702873D008DC6728F1D06928B8
:103F10006FD06E280DD06F2806D1B5E073282CD055
:103F2000752875D0782874D05A46179990476D1C1B
:103F300075E1C4F30250022809D003280DD0D9F846
:103F4000001004280DD00D6009F1040967E1D9F8CB
:103F50000010EA17C1E90052F6E7D9F800100D8009
:103F6000F2E70D70F0E719F8041B8DF8001000203F
:103F70008DF80100EA46012003E059F804AB4FF048
:103F8000FF3061074FF0000102D40DE008F101019C
:103F90008846B9420FDA8045F8DB1AF80810002984
:103FA000F4D108E008F1010188468142FADB1AF8F1
:103FB00008100029F6D105985B46A0EB08072146BA
:103FC0003846179A00F094FA284400EB080507E0F9
:103FD0004DE029E10DE01AF8010B5A461799904778
:103FE000B8F10108F7D25B4621463846179A13E12B
:103FF00042E00A220092C4F302524FF0000A022A61
:1040000008D059F804CB032A4FEAEC710AD00DE02E
:1040100029E02AE009F1070121F00702F2E802C1D4
:10402000914609E00FFA8CFC4FEAEC71042A03D1A7
:104030004FFA8CFC4FEAEC71002907DA0A4600219E
:10404000DCF1000C61EB02012D2202E0220504D517
:104050002B228DF80420012203E0E20701D0202268
:10406000F7E7904659E00A2102E010220DE0102106
:104070004FF0000A00910BE010224FF0000A44F0CC
:1040800004040827009203E008224FF0000A00927F
:10409000C4F30252022A05D059F804CB0021032AA6
:1040A00008D009E009F1070121F00702F2E802C196
:1040B000914605E01FFA8CFC042A01D10CF0FF0C9C
:1040C0004FF00008220728D5702806D0009B83F007
:1040D000100353EA0A0305D00EE040228DF80420B5
:1040E000012208E05CEA010206D030228DF80420AB
:1040F0008DF8050002229046009B83F0080353EAE6
:104100000A030AD15CEA010201D1620705D5302217
:104110008DF804204FF001087F1E582804D034A0E9
:1041200003900EA802900DE036A0F9E753466046D2
:10413000009AFCF793FB84460398825C0298401E29
:10414000029002705CEA0100F0D1029806A9081AF8
:1041500000F1200A600702D524F4803400E0012732
:10416000574502DDA7EB0A0000E0002000EB0A0142
:10417000009005984144401A0590E00306D45B4640
:104180002146179A059800F0B3F90544002706E088
:1041900001A85A46C05D179990476D1C7F1C474582
:1041A000F6DBE0030CD55B462146179A059800F034
:1041B0009FF9054404E030205A46179990476D1C3A
:1041C0000099481E00900029F5DC08E00298029949
:1041D0005A460078491C0291179990476D1CBAF114
:1041E0000001AAF1010AF1DC65E1000009280100E3
:1041F000303132333435363738396162636465665D
:10420000000000003031323334353637383941421E
:10421000434445460000000000F058F90544761C70
:10422000307800287FF4ECAD19B02846BDE8F08F57
:10423000620700D4062709F1070222F0070CFCE808
:104240000223E14603F000485FEA080C02D00FF2B7
:10425000702C0DE05FEA045C02D50FF2682C07E0D9
:104260005FEAC47C02D00FF2602C01E0AFF2700C68
:104270004FF0FF3823F00043CDF850C065280CD034
:1042800006DC452809D046281DD047283DD13DE011
:10429000662818D067287ED138E00021112F01DB75
:1042A000112000E0781CCDE9000106A90EA8FFF757
:1042B000DDFCDDE90F010E9A03910021009207F168
:1042C000010A04914DE04FF000400097CDE9011044
:1042D00006A90EA8FFF7CAFCDDE90F0203920E9BA8
:1042E00011990022DDF80CA00093049211B9791CF9
:1042F00000EB010AB7EB0A0004D4C0F1FF3007F16C
:10430000010A0490AAEB0700019044E0012F00DAB3
:1043100001270021112F01DD112000E03846CDE9F1
:10432000000106A90EA8FFF7A1FCDDE90F010E9A16
:104330000391002104910092BA4621070CD40399FD
:10434000514500DA8A46BAF1010F05DD009AAAF15B
:104350000101515C302908D0B84202DA10F1040F93
:1043600006DA0121CDE9011015E0AAF10101E9E722
:10437000002805DC049901440491AAEB000102E045
:10438000411C514500DD8A460499401A401C0190A9
:104390004FF000400290200704D40198504501DB03
:1043A000CDF8048000208DF84F0002980DF14F07E2
:1043B000B0F1004F25D02B200E9002984FF002084C
:1043C00000280CDA404202902D200E9007E00A21CE
:1043D0000298FCF72DFA3031029007F8011DB8F170
:1043E0000001A8F10108F2DC02980028EFD1791E43
:1043F0000E980870307800F0200040F0450007F873
:10440000020D12A8C01B00F107081498007800B133
:10441000012000EB0A01019801EBE071059841448D
:10442000401A401E0590E00306D45B462146179AC9
:10443000059800F05DF805441498007818B15A46C4
:10444000179990476D1CE00324D55B462146179AC7
:10445000059800F04DF805441CE00498002807DB9F
:10446000DDE90301884203DD0098405C179901E013
:10447000179930205A469047049805F10105401CD1
:1044800004900198401E019004D12E205A4617999D
:1044900090476D1CBAF10001AAF1010ADDDC05E0CC
:1044A00017F8010B5A46179990476D1CB8F1000197
:1044B000A8F10108F4DC5B462146179A0598ABE6A3
:1044C0002D0000002B000000200000002DE9F0412D
:1044D000044600251E461746880404D405E03946E4
:1044E0002020B0476D1C641EF9D52846BDE8F08138
:1044F0002DE9F041044600251E469046C80301D52B
:10450000302700E02027880404D505E041463846DE
:10451000B0476D1C641EF9D52846BDE8F0814A6895
:10452000002A06D00A68531C0B6010704868401EB1
:10453000486070472DE9FE4F06460F460025684645
:1045400001F0EAF9002442E056F8240057F824105C
:10455000A0EB010ABAF1000F01DB514601E0CAF1FC
:1045600000010846FCF7A0F883464FF08F41FBF7A7
:10457000D5FE80465DF824000021FCF745F916D0F1
:104580005DF824104046FBF7C9FE82464FF07E518D
:10459000FBF78CFE814629F0004A0F48416A5046DD
:1045A000FCF73CF912D20120A04005430EE00A4876
:1045B000C1694046FCF728F905D30748016A40461F
:1045C000FCF72CF902D20120A0400543641C032C07
:1045D000BADB2846BDE8FE8F487B00082DE9F04D88
:1045E0008D4F21F0004A86B005460C46BA452ADBBD
:1045F000AAEB070028430AD08848824501DC1AD17B
:10460000CDB106B02846BDE8F04DFFF706BB844AA1
:10461000844B2846FBF767FF07460E46824A834BCA
:1046200028462146FBF75FFF06B03A463346BDE811
:10463000F04DFBF7B1BE0120FFF712FB06B0BDE85D
:10464000F04DFFF7EFBA7A48824542DABAF1795F66
:104650000BDA2846FFF778FA042808BFFFF7E8FAD4
:10466000284606B02146BDE8F08D2A460B46104686
:10467000FBF739FF834602466E480E460B4606217D
:104680007844FFF775FA5A463346FBF72CFF80460D
:1046900069488A465A46334604217844FFF768FA47
:1046A0005A463346FBF71FFF00223B46FBF774FEDA
:1046B00002460B4640465146FBF787FF2A462346F3
:1046C000FBF711FF06B02A462346BDE8F04DFBF785
:1046D00063BE284624F0004100223D463B46FBF7DE
:1046E000FFFE4FF0FF32FCF7AFF906460246534893
:1046F0000F460B4606217844FFF73AFA32463B460E
:10470000FBF7F1FECDE900014D4832463B4604215E
:104710007844FFF72DFA32463B46FBF7E4FE0022D1
:104720002B46FBF739FE834602913046394602F0AC
:1047300039FE804643480D46504517DCDDE900014F
:104740005A46029BFBF741FF42462B46FBF7CBFE46
:1047500042462B46FBF720FE0122FCF775F9304A52
:10476000304BFBF7BAFE304A304B4CE04FF0000ABA
:1047700052460B464046FBF70FFECDE9031052466A
:104780002B4610461946FBF7AEFE32463B46FBF77A
:10479000A7FEDDE90332FBF718FF06460F46DDE909
:1047A00000015A46029BFBF710FF8346009101224D
:1047B00030463946FCF748F9194A1A4BFBF790FE88
:1047C00006460F46012240462946FCF73DF95A4667
:1047D000009BFBF788FE32463B46FBF77EFE064613
:1047E0000F46012250462946FCF72EF90E4DDFF800
:1047F00058802A464346FBF773FE32463B46FBF79A
:104800006FFE2A464346FBF76BFE002CD8BF81F0B3
:10481000004106B0BDE8F08D0000F03F0000F07FE1
:10482000075C143326A6913C182D4454FB21F93F14
:104830000000E03FE4400000FA4000006E4000004D
:10484000844000003333EF3FFB21E93F2DE9F84F6F
:1048500004460D4621F0004000917349814211DC6D
:104860007249884201DC06D12CB120462946BDE8B8
:10487000F84FFFF7D2B96E48002DCCBF6D496E4995
:10488000BDE8F88F6D49814211DD6D498142D8BF85
:104890004FF0FF366DDD20462946FFF755F9042815
:1048A00008BFFFF7C5F920462946BDE8F88F6549DE
:1048B000654F25F00045814233DD6449814219DDB1
:1048C000002632464FF0804320462946FBF764FD20
:1048D00080468A46012220462946FCF7B5F8002288
:1048E0003B46FBF7FAFD42465346FBF76EFE044695
:1048F0000D463EE001260022BA463B4620462946A8
:10490000FBF74AFD80460F460022534620462946C3
:10491000FBF7E3FD42463B46FBF757FE04460D46D8
:1049200027E04B4981421BDDDFF828A10226002247
:10493000534620462946FBF7D6FD00223B46FBF7AF
:104940002BFD80460F460022534620462946FBF7A2
:10495000C4FD42463B46FBF738FE04460D4608E0E0
:10496000032622462B4600203B49FBF72EFE044639
:104970000D4622462B4610461946FBF7B4FD8B46E2
:10498000824602460B46FBF7AEFD07460246334819
:1049900088460B4606217844FFF7EAF852465B4604
:1049A000FBF7A1FD82462E488B463A464346052139
:1049B0007844FFF7DDF83A464346FBF794FD02469C
:1049C0000B46002E504659460CDAFBF7E5FC224612
:1049D0002B46FBF788FD01B022462B46BDE8F04F81
:1049E000FBF77EBDFBF7D8FC22462B46FBF77BFD91
:1049F0001C4A7A4402EBC603D3E90023FBF76DFDA2
:104A000022462B46FBF769FD174A7A4402EBC603A0
:104A1000D3E90023FBF764FD009A002AB8BF81F0B8
:104A20000041BDE8F88F0000000010440000F07F56
:104A3000182D4454FB21F93FFB21F9BF0000DC3F56
:104A40000000203E0000F33F0000F03F0000E63F82
:104A5000008003400000F83F0000F0BF863E0000E9
:104A6000443E0000E23D0000AA3D00002DE9F04D6B
:104A70009446CCF1000423F000464CEA0404524F63
:104A800046EAD4749A46884621F00042BC4206D8D1
:104A9000454240EA050442EAD474BC4204D9BDE868
:104AA000F04D6246FFF7BCB8AAF14055A5F17F650D
:104AB00055EA0C040BD0022404EAAA74434DDFF833
:104AC00010E144EAD87452EA000B04D00CE0BDE8CF
:104AD000F04DFFF7BBBE002C14BF012CBDE8F08DDC
:104AE000022C30D0032C32D056EA0C0B0AD0BE4236
:104AF00020D1BA4209D126F0804622F080423346C6
:104B0000114617E000291ADB25E0DFF8C8B0FB44A6
:104B1000002C04BFDBE90001BDE8F08D012C02BFD1
:104B2000DBE9000181F00041BDE8F08D022C0AD0E4
:104B3000032C0CD0BA4212D1B8F1000F0BDA234883
:104B40002549BDE8F08D28462449BDE8F08D28466A
:104B50007146BDE8F08D1D482149BDE8F08D921BDE
:104B600012153C2AC4BF19481D490EDCBAF1000FCA
:104B7000BEBF12F13C0F0020014606DB6246FBF788
:104B800024FD21F00041FFF761FE002C08BFBDE8C5
:104B9000F08D012C04BF81F00041BDE8F08D114A79
:104BA000114B022C07D0FBF798FC2A46BDE8F04DCC
:104BB0000A4BFBF792BCFBF790FC2A46BDE8F04D90
:104BC000064BFBF78DBC00000000F07F182D44540D
:104BD000FB2109C03E3D0000FB21F9BFFB2109403C
:104BE000FB21F93F075C143326A6A13C2DE9F14FC8
:104BF00082B00298FBF766FD00220D4BCDE9000163
:104C0000FBF771FC804600220A4BFBF7DEFC0646F0
:104C10000022094BFBF7C0FB0446084A084BFBF790
:104C200062FC8246FBF788FD80B2BDE8FE8F000083
:104C30000000F03F008056400000E03F9A999999AB
:104C40009999694010B501210D20FDF7C9F901219D
:104C50008803FDF7C5F901210148FCF73DFB10BDB4
:104C6000000230002DE9F0410446E07800F0C00673
:104C7000E07800F03F05607800F0010098B1EF1097
:104C80002846E91705EB5171C910A5EBC101491C74
:104C900001F0FF080B48006820B10A48414602684D
:104CA0003846904700BF607800F0080030B10548F2
:104CB000406818B1B011034A516888470020BDE828
:104CC000F0810000AC04002038B5044664B1202017
:104CD0008DF8000028208DF8010030208DF80200AA
:104CE00038208DF8030004E0A32204216846FBF776
:104CF0006CFA6A46042140F69E2002F02DFA01F07B
:104D000017FE38BD3EB5044602208DF80000CA20CB
:104D10008DF80100E3208DF8020009208DF80300D2
:104D20006A460421682002F017FAA3208DF80000DB
:104D300004F0400048B1C0208DF80100C8208DF873
:104D40000200C2208DF8030006E0A3208DF80100C8
:104D50008DF802008DF8030004F4C07048B1C4203F
:104D60008DF80400CC208DF80500C6208DF80600D3
:104D700006E0A3208DF804008DF805008DF80600EC
:104D8000A3208DF807008DF808008DF809006A4609
:104D90000A2140F6A72002F0DFF904F0030018B161
:104DA00020208DF8000002E0D8208DF800006A462F
:104DB000012140F6B62002F0CFF904F0200018B12E
:104DC000012000F0ADF802E0002000F0A9F804F4A2
:104DD000C07008B304F4807060B1B2208DF8000098
:104DE0008B208DF80100B6208DF802009B208DF8F5
:104DF00003000BE0B0208DF8000080208DF801004A
:104E0000B4208DF8020090208DF803006A4604213A
:104E100040F6A22002F0A0F904F0010020B3F8202F
:104E20008DF800006A4601214FF40B6002F094F9FE
:104E3000FA21072000F02CFC072000F0F3FB0120F2
:104E400000F013FC642000F0F3FC4FF4FA7000F063
:104E500002FDC821304800F0A3FB282000F0BCFB75
:104E60000A2000F0CCFB08E0D8208DF800006A464C
:104E700001214FF40B6002F06FF904F0020018B149
:104E8000D9208DF8000002E0D8208DF800006A4695
:104E9000012140F23D7002F05FF904F0040018B106
:104EA000012000F069F802E0002000F065F804F04D
:104EB000100018B10120FFF707FF02E00020FFF704
:104EC00003FF44F008001549488101F031FD00203E
:104ED0001249887304F0400018B10846807B801D99
:104EE000887304F4C07020B10C48807B801D0B498E
:104EF000887304F0140020B10848807B1030074903
:104F0000887304F0030020B10448807B001D03492E
:104F1000887300203EBD000009E3CA02AC040020F3
:104F20003EB504466CB10EA1D1E900208968CDE9F7
:104F3000002002916A4609214FF4976002F00CF9B3
:104F40003EBD0AA2D2E900109268CDE901020091AB
:104F50006A4609214FF4976002F0FEF8F0E700007E
:104F6000B8AAB38DB4980D355D000000B8AAAAAAFE
:104F7000B088C3C5C700000038B5044664B1C0207E
:104F80008DF80000C2208DF80100C4208DF80200C9
:104F9000C6208DF8030004E08B2204216846FBF74D
:104FA00014F96A46042140F6982002F0D5F801F081
:104FB000BFFC38BD10B5C8234FF48062024940F6EB
:104FC000F63001F049FB10BD707B00082DE9F04F71
:104FD0008DB00746884615469946DDE9166B0024D4
:104FE000002030806B49887B5A4605A901F000FCFF
:104FF00018B1601E0DB0BDE8F08F6648807A00F0F1
:105000001400002867D09DF8140000069DF81510C4
:1050100040EA01409DF8161040EA01209DF8171063
:10502000084328609DF8180000069DF8191040EA12
:1050300001409DF81A1040EA01209DF81B1008431A
:1050400068609DF81C0000069DF81D1040EA0140B4
:105050009DF81E1040EA01209DF81F100843A8602B
:105060009DF8200000069DF8211040EA01409DF8BF
:10507000221040EA01209DF823100843E86004F163
:105080001000C4B2286800140190686800140290EF
:10509000A86800140390E868001404900198404345
:1050A000029901FB0100039901FB0100049901FB36
:1050B000010ABAF1706F02DBBAF1885F05DD01F019
:1050C00037FC00203080401E94E7B6F9000040F421
:1050D0008070308000BF2F48807A00F0400020B3FD
:1050E00005A9601C085C095D40EA012000B2A8F82F
:1050F000000005A9E01C095C05AAA01C105C41EA9F
:10510000002000B2A8F8020005A9601D095C201D5E
:10511000105C41EA002000B2A8F80400A01DC4B24F
:10512000B6F9000040F0080030801A48408900F4C9
:10513000C07008B305A9601C085C095D40EA012045
:1051400000B2388005A9E01C095C05AAA01C105C0F
:1051500041EA002000B2788005A9601D095C201D8D
:10516000105C41EA002000B2B880A01DC4B2B6F9BC
:10517000000040F0700030800648807A00F00300A4
:1051800018B105A90819FFF76DFD484600F027FF83
:1051900000202FE7AC04002070B588B0064601A8B7
:1051A00001F0DEF8BDF804000021C90341EA5045D2
:1051B000C4034448007A00F0030056F8200005902C
:1051C0004048007A00F0040010B105984042059074
:1051D0003C48007AC0F3C10056F8200006903948D8
:1051E000007A00F0200010B1069840420690354841
:1051F000007AC0F3811056F82000079031480089EA
:1052000000F4807010B10798404207900598C117CC
:10521000A0FB042301FB043100FB0510810041EADF
:10522000927005900698C117A0FB042301FB04317E
:1052300000FB0510810041EA927006900798C117A3
:10524000A0FB042301FB043100FB0510810041EAAF
:10525000927007900598000E8DF808000598000CD4
:105260008DF809000598000A8DF80A000598C0B26B
:105270008DF80B000698000E8DF80C000698000CB7
:105280008DF80D000698000A8DF80E000698C0B241
:105290008DF80F000798000E8DF810000798000C8D
:1052A0008DF811000798000A8DF812000798C0B217
:1052B0008DF8130002AA0C214FF4257001F04CFF69
:1052C00008B070BDAC04002030B585B0044616A20D
:1052D00007CA02AB07C3C82C03DD4FF0FF3005B08F
:1052E00030BDC82090FBF4F0401E85B2280A8DF82E
:1052F0000000E8B28DF801006A46022140F2162053
:1053000001F02AFF10B14FF0FF30E8E702AA0C21AC
:1053100040F6C12001F020FF10B14FF0FF30DEE772
:10532000044884810020DAE7FEF2ABC4AAF1DFDF93
:10533000BBAFDFDFAC0400201FB504464848007A4D
:1053400000F0030054F8200001904548007A00F076
:10535000040010B10198404201904148007AC0F326
:10536000C10054F8200002903D48007A00F020006F
:1053700010B10298404202903948007AC0F381107F
:1053800054F8200003903648008900F4807010B172
:105390000398404203903349019880FB0101800F3C
:1053A00040EA810001902F49029880FB01108200A1
:1053B00042EA917002902B49039880FB0110820011
:1053C00042EA917003900198000E8DF80000019858
:1053D000000C8DF801000198000A8DF80200019878
:1053E000C0B28DF803006A4604214FF4747001F0D6
:1053F000B3FE18B14FF0FF3004B010BD0298000E9C
:105400008DF800000298000C8DF801000298000A47
:105410008DF802000298C0B28DF803006A4604219C
:105420004FF4757001F098FE10B14FF0FF30E3E7D4
:105430000398000E8DF800000398000C8DF8010011
:105440000398000A8DF802000398C0B28DF803009B
:105450006A4604214FF4767001F07EFECCE700002E
:10546000AC04002009E3CA0210B586B0044647A088
:105470000068039046A00068029046A00068019072
:1054800045A00068009004F0030003A9085C8DF8B3
:10549000140003A8C4F3C101405C8DF8150003A8F3
:1054A000C4F38111405C8DF8160004F0030002A9DA
:1054B000085C8DF8100002A8C4F3C101405C8DF8AF
:1054C000110002A8C4F38111405C8DF8120005AAF6
:1054D000032140F2264001F03FFE18B14FF0FF30AB
:1054E00006B010BD04AA032140F22A4001F034FEA8
:1054F00010B14FF0FF30F3E7019805900098049049
:1055000004F0040058B19DF8140040F001008DF83B
:1055100014009DF8100040F001008DF8100004F018
:10552000200058B19DF8150040F001008DF81500DD
:105530009DF8110040F001008DF8110004F4807016
:1055400058B19DF8160040F001008DF816009DF846
:10555000120040F001008DF8120005AA03214FF45B
:10556000886001F0F9FD10B14FF0FF30B8E704AAF0
:10557000032140F2314001F0EFFD10B14FF0FF3058
:10558000AEE7064804810020AAE700004CCD6C007D
:105590000CC92C003656760026466600AC04002066
:1055A000F8B505460E464FF47A7095FBF0F000FB17
:1055B00006F4200E8DF80000200C8DF80100200A62
:1055C0008DF80200E0B28DF803006A4604214FF422
:1055D000AE7001F0C1FDF8BD38B50446052094FB5E
:1055E000F0F084B220128DF80000E0B28DF80100D6
:1055F0006A4602214FF4AD7001F0AEFD38BD38B5FA
:105600000446052094FBF0F084B220128DF80000CF
:10561000E0B28DF801006A4602214FF4AC7001F04F
:105620009BFD38BD38B504460020009004F0010011
:1056300020B19DF8000040F03000009004F002001E
:1056400020B19DF8000040F00C00009004F0040030
:1056500020B19DF8000040F0030000906A4601214F
:105660004FF4A47001F078FD38BD38B50446012C24
:1056700001DA012402E0042C00DD0424601EC0B223
:1056800000906A46012140F24F1001F065FD38BDDF
:105690002DE9FC4706460F4606F0070010B1B7F5A6
:1056A000C86F03DD4FF0FF30BDE8FC873846FBF7DD
:1056B00004F881465949FAF731FE8046684600F001
:1056C00029FE9DF80000022806D0042816D00828DC
:1056D00026D0102848D135E04FF08D414046FAF7EA
:1056E000EBFD8146FBF714F884B24D494046FAF7CA
:1056F000E3FD8146FBF70CF885B238E04FF08C41B2
:105700004046FAF7D9FD8146FBF702F884B24549D5
:105710004046FAF7D1FD8146FAF7FAFF85B226E056
:105720004FF08B414046FAF7C7FD8146FAF7F0FF8C
:1057300084B23D494046FAF7BFFD8146FAF7E8FFDB
:1057400085B214E04FF08A414046FAF7B5FD814634
:10575000FAF7DEFF84B235494046FAF7ADFD8146DF
:10576000FAF7D6FF85B202E04FF0FF309CE700BFAA
:1057700020128DF80400E0B28DF8050028128DF893
:105780000600E8B28DF8070006F00100A0B101AAFA
:1057900002214FF4EA7001F0DFFC10B14FF0FF304E
:1057A00082E70DF1060202214FF4927001F0D4FC61
:1057B00010B14FF0FF3077E706F00200A0B101AA68
:1057C00002214FF4EC7001F0C7FC10B14FF0FF3034
:1057D0006AE70DF1060202214FF4947001F0BCFC5F
:1057E00010B14FF0FF305FE706F00400A0B101AA4E
:1057F00002214FF4EE7001F0AFFC10B14FF0FF301A
:1058000052E70DF1060202214FF4967001F0A4FC5C
:1058100010B14FF0FF3047E7002045E70000484354
:10582000000040460000C045000040450000C04464
:1058300038B50446052094FBF0F085B228128DF8A7
:105840000000E8B28DF801006A4602214FF4EF70C3
:1058500001F082FC38BD38B50446052094FBF0F019
:1058600085B228128DF80000E8B28DF801006A4672
:1058700002214FF4ED7001F06FFC38BD00200A49A1
:1058800091F80111084A32F81100114691F80111FE
:10589000491C82F80111114691F80111802902DB9F
:1058A000002182F801117047AA0300200A4991F8EB
:1058B0000011094A22F81100114691F80011491C03
:1058C00082F80011114691F80011802902DB0021B5
:1058D00082F8001170470000AA0300200D4890F8DC
:1058E00001010C4991F80011884208DC094890F840
:1058F0000001084991F80111401A80B2704705482B
:1059000090F80101C0F18000024991F800110844AB
:1059100080B2F3E7AA0300207CB505462849496810
:10592000087801AB04220D21FBF7CCFF08B107205A
:105930007CBD9DF80700C0F301109DF8041001F034
:10594000E00140EAE1008DF800009DF80700C0F397
:1059500081009DF8051001F0E00140EAE1008DF8BA
:1059600001009DF8070000F003009DF8061001F00B
:10597000E00140EAE1008DF8020000241CE01DF87F
:10598000040018B9002045F8240013E00D4845F83C
:10599000240006E055F824000B49FAF78DFC45F881
:1059A00024001DF80400401EC0B20DF804000028B9
:1059B000F0D100BF601CC4B2032CE0DB0020B7E7CD
:1059C000600000207B14AE3E1D5A843F2DE9F04F4D
:1059D00087B005460C46914601208DF81000002046
:1059E0008DF81100FE4A1268917CFD4A52681078C9
:1059F00004AB0222FCF70CF820B14FF0FF3007B0E7
:105A0000BDE8F08FC820FBF760FB00208DF8100088
:105A1000F34A1268D17BF24A5268107804AB012233
:105A2000FBF7F6FF10B14FF0FF30E8E7EC4A1268E1
:105A30005179EB4A5268107804AB0122FBF7E8FF7A
:105A400010B14FF0FF30DAE7E54A1268917CE44A82
:105A50005268107804AB0122FBF7DAFF10B14FF067
:105A6000FF30CCE7DE4A1268D17DDD4A52681078FB
:105A700004AB0122FBF7CCFF10B14FF0FF30BEE7C3
:105A8000D74A12681179D64A5268107804AB0122BD
:105A9000FBF7BEFF10B14FF0FF30B0E70C208DF8E0
:105AA0001000CF4A12681179CD4A5268107804ABC1
:105AB0000122FBF7ADFF10B14FF0FF309FE70F2041
:105AC000FBF703FBC648806A407A8DF81000C44A91
:105AD00012689178C24A5268107804AB0122FBF731
